:2000000000802020232B0000871D0000871D0000000000000000000000000000000000008A
:20002000000000000000000000000000871D00000000000000000000871D0000871D0000D4
:20004000871D0000B51F0000871D0000871D0000871D0000871D0000871D0000871D000050
:2000600000000000871D0000871D00000000000000000000871D0000871D0000072B0000BE
:20008000871D00007D280000871D0000871D0000292A0000871D00000000000000000000D8
:2000A000871D0000871D00000000000000000000871D000000000000871D0000871D00000C
:2000C000F0B583B005460B480121890202F081FC00F0ACFF681E042800D988E24000C046B8
:2000E000784480884000874407008602AD016602C100C046000020200D20C043871C00258D
:2001000048202C4604E0B87C019FBF1D00D16EE201467F395E22D243914202920DD306224D
:200120005043CB490918C039E0B2C001EBB2C94E3018C01802F0ECFC029AA81DC1B2651CA8
:2001400000267A2900D8254600D806460197C248C719787B01467F3991420DD3062250438D
:20016000BB490918C039E8B2C001F3B2B94C2018C01802F0CDFC029AB01DC1B26C1C002607
:200180007A2900D82C4600D80646B87B01467F3991420DD306225043AD490918C039E0B20C
:2001A000C001F3B2AB4D2818C01802F0B1FC029AB01DC1B2651C00267A2900D8254600D8E9
:2001C0000646F87B01467F3991420DD3062250439F490918C039E8B2C001F3B29D4C2018D0
:2001E000C01802F095FC029AB01DC1B26C1C00267A2900D82C4600D80646387C01467F3956
:2002000091420DD30622504391490918C039E0B2C001F3B28F4D2818C01802F079FC029A8D
:20022000B01DC1B2661C00257A2900D8264600D80546787C01467F3991420CD3062250436D
:2002400083490918C039F0B2C001EBB2814C2018C01802F05DFCA81DC1B2741C00257A2900
:2002600000D8344600D94EE705464CE70D20C7437A48F9214901774C03C4794820804121F6
:200280006180784A784B6260A360A081E181774877492061616177482083774860830226C2
:2002A00000254B2004E0787D019FFF1D00D19EE101467F395E22D243914202920DD30622C6
:2002C000504363490918C039F0B2C001EBB2614C2018C01802F01CFC029AA81DC1B2751C99
:2002E00000247A2900D8354600D8044601976348C719F87B01467F3991420DD306225043BF
:2003000053490918C039E8B2C001E3B2514E3018C01802F0FDFB029AA01DC1B26C1C002614
:200320007A2900D82C4600D80646387C01467F3991420DD30622504345490918C039E0B251
:20034000C001F3B2434D2818C01802F0E1FB029AB01DC1B2651C00267A2900D8254600D880
:200360000646787C01467F3991420DD30622504337490918C039E8B2C001F3B2354C20187D
:20038000C01802F0C5FB029AB01DC1B26C1C00267A2900D82C4600D80646B87C01467F3905
:2003A00091420DD30622504329490918C039E0B2C001F3B2274D2818C01802F0A9FB029A8D
:2003C000B01DC1B2651C00267A2900D8254600D80646F87C01467F3991420DD3062250434B
:2003E0001B490918C039E8B2C001F3B2FC4C2018C01802F08DFB029AB01DC1B26C1C002623
:200400007A2900D82C4600D80646387D01467F3991420CD306225043F7490918C039E0B2BE
:20042000C001F3B2EE4D2818C01802F071FBB01DC1B2661C00257A2900D8264600D932E7E5
:20044000054630E7002753203D463E461DE0C046302B000000002020272E0000001F204027
:20046000417F00000046494949310000003E4141413E007F04080000107F0000182E0000CB
:200480006D1D58790A2D00D1B1E001467F395E22D243914202920DD306225043D649091892
:2004A000C039F0B2C001FBB2CD4C2018C01802F02FFB029AB81DC1B2771C00247A2900D8D8
:2004C000374600D80446D6484319587801467F39914201930ED306225043C7490918C03907
:2004E000F8B2C001E3B2BE4E3018C01802F010FB019B029AA01DC1B27C1C00267A2900D832
:200500003C4600D80646987801467F3991420ED306225043B8490918C039E0B2C001F3B2A4
:20052000AF4F3818C01802F0F3FA019B029AB01DC1B2671C00267A2900D8274600D8064689
:20054000D87801467F3991420ED306225043AA490918C039F8B2C001F3B2A14C2018C018C3
:2005600002F0D6FA019B029AB01DC1B27C1C00267A2900D83C4600D80646187901467F39D2
:2005800091420DD3062250439B490918C039E0B2C001F3B2924F3818C01802F0B9FA019BAD
:2005A000B01DC1B2661C00277A2900D8264600D966E7074664E78C488C49894E03C6904A8A
:2005C0003280904B7380904C904D7460B560884CB481884CF4818E4C8E4D346175618E4CAD
:2005E00074838E4C3483F0613162B284F38400F01DFD03B0F0BD0D20C7438A488A49784ADA
:2006000003C28A4810808A4850808A488A4950609160824890818948D081894889491061BA
:200620005161704810834120508387488749D16110628748D08487489084022600254B2088
:2006400003E0787D019FFF1DD1D001467F395E22D243914202920DD30622504366490918FF
:20066000C039F0B2C001EBB25D4C2018C01802F04FFA029AA81DC1B2751C00247A2900D889
:20068000354600D8044601975C48C719F87B01467F3991420DD30622504357490918C03907
:2006A000E8B2C001E3B24E4E3018C01802F030FA029AA01DC1B26C1C00267A2900D82C460B
:2006C00000D80646387C01467F3991420DD30622504349490918C039E0B2C001F3B2404DA4
:2006E0002818C01802F014FA029AB01DC1B2651C00267A2900D8254600D80646787C01461A
:200700007F3991420DD3062250433B490918C039E8B2C001F3B2324C2018C01802F0F8F9A4
:20072000029AB01DC1B26C1C00267A2900D82C4600D80646B87C01467F3991420DD3062210
:2007400050432D490918C039E0B2C001F3B2244D2818C01802F0DCF9029AB01DC1B2651CD1
:2007600000267A2900D8254600D80646F87C01467F3991420DD3062250431F490918C039E6
:20078000E8B2C001F3B2164C2018C01802F0C0F9029AB01DC1B26C1C00267A2900D82C46C5
:2007A00000D80646387D01467F3991420CD30622504311490918C039E0B2C001F3B2084D33
:2007C0002818C01802F0A4F9B01DC1B2661C00257A2900D8264600D933E7054631E7C04648
:2007E00000002020417F0000003E4141413E007F04080000107F0000302B0000182E0000FF
:200800000909000009060000007F49494941007F007F40404040003E413E000041410000DF
:20082000402E00000001017F0101007F0919000029460000007C1211127C003E41220000E9
:20084000007F081422410000107F003E007F0408497A000041490000F0B585B08D490878C5
:20086000002800D113E10878002800D19CE08A498A4800220271C2708270427002700A68A2
:200880000127FD04154000D007700A687E04164000D04770824A13683C041C4000D0877018
:2008A0001268BB03134000D0C77009683A050A4002920493039404D00771002D05D128462D
:2008C00004E0002D17D1284616E076487649019000F00BFF0446002E00D1019C73492046AB
:2008E00000F003FF0499002900D12046724900F0FCFE039C1EE06B486B49019000F0F5FEEC
:200900000446002E00D1019C6849204600F0EDFE049B002B00D12046E90C720C5118039C83
:20092000220C89189A0B0A4304D161480068614901F0BAFA5E49086001F092FE5F49086021
:200940005F4800680A680968002A00DC4942CA0F89184910421A5B490A600A68092A049B93
:2009600001DC0A220A600A68801D824200DD0860701E8641681E85413540012D08D1002CA3
:2009800006D0002B04D050480179002900D10771002D01D04C484770002B3E4904D0029895
:2009A000002801D048488770474C207900280ED02079012811D10020014601F039FB4348CA
:2009C0000068434908600220207105B0F0BD2078002823D00020014657E0207902280DD1B4
:2009E0000420C043014601F023FB3848006838490968401A64284AD30320E5E720790328EA
:200A000045D1002008700121217020712D4908602A49086026490860014636E0274D2868F3
:200A200001F0E2FD2B4A116810602B682A68002B00DC5242042A01DA002111E000F050FE6F
:200A40001A4901F031FA044629680520484301F0CBFD0146204600F048FE01F001FE0146B9
:200A600017480268501AD123DB43984200DC18465118BE2800DBBE20C722D243914200DC68
:200A800011460A30C82900DBC82101F0D1FA05B0F0BDC0469404202080330A4020042020B3
:200AA00080130A400000A0C0000040C000004040400420206666663F0000A04070042020F0
:200AC0004C0420206C042020250420203C0420204404202030042020F0B583B07A4C2078BB
:200AE000002816D079480178002919D001F0F0FF77490B68774A15685B1B7B4DAB4220D32D
:200B00008D48012101700020207001F00FFD8748D6E06E48002101707248018003B0F0BD58
:200B20006B4909686B4A11606B4900220A606B490A606B490A60012101706A48028003B074
:200B4000F0BD0968116001F04FFD07466448056800242846214601F01FFC064602973846FB
:200B6000294600F0BDFD05465E48005F01F03CFD07465E49284601F097F90546002E00D0B6
:200B800025465B49384601F08FF9294600F0ADFD0646584901F088F901F062FD5149088075
:200BA000029D4F4805605448005F01F01DFD0146284600F095FD0446504D07462F40504921
:200BC000384601F0FBFB00280DD02E407F20C105304601F0EAFB002805D04A480188491C0F
:200BE000018052486CE04748002101804649204601F05AF90290394D2968204600F070FDB8
:200C0000424901F051F901902C604149384601F0CCFB0746304806683F200106304601F031
:200C200043F905463B49204601F03EF9314600F05CFD0646002F00D12E46374C304621463B
:200C400001F0CEFB002800D13446344D2046294601F0ABFB002800D125461F4805603049D1
:200C6000284601F021F90146029800F03EFD0146019800F03AFD05462A4C214601F0B0FB24
:200C8000002800D12C46284D2046294601F08DFB002800D125462548294600F021FD05468D
:200CA000234C214601F081FB002800D12C46214D2046294601F094FB002800D125462846F1
:200CC00001F09EFA03B0F0BD8E0420208F0420203C0420205C04202050042020600420202E
:200CE000580420207404202089130000CDCCCC3E9A99193F0000C84278042020FFFFFF7F94
:200D00000000A040760420208FC2F53DEC51B83E0000F0419A99993E00004843000048C3B2
:200D20006F12033B0000A0410000A0C10000B442000070410000254384042020F0B581B005
:200D4000009040B25B4901270F630E46103E0028084600DA304607604B20C400204601F07E
:200D6000BDFE02253560204601F0B8FE51480560204601F0B3FE4F490F63009840060846B3
:200D800000D530460760204601F0A8FE3560204601F0A4FE47480560204601F09FFE4549A0
:200DA0000F6300988006084600D530460760204601F094FE3560204601F090FE3D48056056
:200DC000204601F08BFE3B490F630098C006084600D530460760204601F080FE356020460F
:200DE00001F07CFE33480560204601F077FE31490F6300980007084600D5304607602046EB
:200E000001F06CFE3560204601F068FE29480560204601F063FE27490F6300984007084688
:200E200000D530460760204601F058FE3560204601F054FE1F480560204601F04FFE1D493F
:200E40000F6300988007084600D530460760204601F044FE3560204601F040FE154805607C
:200E6000204601F03BFE13490F630098C007084600D030460760204601F030FE356020463A
:200E800001F02CFE0B480560204601F027FE09480764204601F022FE3560204601F01EFEC8
:200EA000044805600546204601F018FE2F632F6001B0F0BDA0120A40F0B583B049484A4952
:200EC00041604A4901601020019001F007FE4849484E304601F03EFD4749304600F09EFA6F
:200EE00046490868464A104008600024009420273046394602972246234601F071FD304678
:200F00002146224601F018FD30462146224601F0BFFD0125009530463946019F3A462346D1
:200F200001F05EFD304621462A4601F005FD304621462A4601F0ACFD32480221016085605B
:200F4000314985204864A8033049086030482649416026490160384601F0C0FD2D492E4EC4
:200F6000304601F0F7FC2D49304600F057FA2C4A10682349084010600094304602993A46B3
:200F8000234601F02DFD30462146224601F0D4FC30462146224601F07BFD009530462146A7
:200FA0002246234601F01CFD304621462A4601F0C3FC304621462A4601F06AFD19480560EE
:200FC00085608420104908601748802101600B49086828430860124908682843086003B07E
:200FE000F0BDC04600088740030000B101000026E32E000000008740882E00000418874023
:201000007F00FFFF0011874038804240D0320A4000080940E02E000000000940802E00009F
:201020000418094000110940D0120A40F0B585B0584C0021584F4B20C50003910095B02056
:2010400002910843C0B201F0A5F8212001F0A2F8039801F09FF87F2001F09CF801262664EE
:201060002660284601F03AFD022004902060284601F034FD266401962661284601F02EFD5C
:2010800004982061284601F029FD7820FFF756FE4020FFF753FE039D7C19785DFFF74EFED9
:2010A0006078FFF74BFEA078FFF748FEE078FFF745FE2079FFF742FE6079FFF73FFEA07940
:2010C000FFF73CFEE079FFF739FE207AFFF736FE607AFFF733FEA07AFFF730FEE07AFFF707
:2010E0002DFE207BFFF72AFE607BFFF727FEA07BFFF724FEE07BFFF721FE207CFFF71EFEC5
:20110000607CFFF71BFEA07CFFF718FEE07CFFF715FE207DFFF712FE607DFFF70FFEA07DB7
:20112000FFF70CFEE07DFFF709FE207EFFF706FE607EFFF703FEA07EFFF700FEE07EFFF782
:20114000FDFD207FFFF7FAFD607FFFF7F7FDA07FFFF7F4FDE07FFFF7F1FD2035802D9BD189
:201160000C4C019E26642661009D284601F0B6FC04982060284601F0B1FC26642660284613
:2011800001F0ACFC0299491C8037082900D056E705B0F0BD90120A4000002020F0B581B05D
:2011A0004F480068C0B20B2800D096E04D484E4F3B780168490700D58FE04C4E0FE0494849
:2011C0004A4E009A5A434A490A604A4909684A4A1160454F00233B70016849077DD4C169A4
:2011E000CAB20D2AF8D00A2A1ED11906F2D0DDB20121022D009100D8002132786423534042
:201200007278782454401C43B2783D2353402343DBB25A425A4103240A4021460BD0A94270
:201220000CD3AC42D6D21FE0DAB20E2AD2D85B1C3B70B154D0E71146A942F2D23B462F46F2
:20124000755C2B2D02D14C1C3D460AE04C1C0022D243009201222D2D00D00C463D4600D09A
:2012600000921F46AC42B5D2335D19463A390922D2439142AED3303B611C8D42A1D0A41C24
:201280002F463519691E0A7811463039092998D80A214B439B18303BE2B2974291D0365DE8
:2012A0003246303A092A8AD84B439B19303B621CD2B2974283D06A781546303D092D00D923
:2012C0007DE759438B18303BA11CC9B2E41C3D468F420448054ED3D173E701B0F0BDC04673
:2012E00020901040089110408304202000042020340420203C04202038042020F0B587B0AA
:2013000001931746002A0290039101D4002404E004A82D2101707F42012421460D460A2674
:201320003846314601F022F94643B91B30220A43691CEBB204AEF254092F0746EED80198B2
:201340002218C8B2824208D94B1C04AD20262E54D8B282420D461946F6D8E9B28C4223D228
:20136000891E04AA135D5618B7781755B370621C6B1EDBB29A4217D204AA13195E78521809
:2013800057785F705670A21CAB1EDBB29A420BD204AA13199E78575C9F705654E41CED1EB5
:2013A000EAB2C91E9442DCD304A900240C5408780028029B039E2AD004A94D1C04E028787A
:2013C0006D1C00280E4622D001467F395E22D243914212D3062250430E490918C039F0B2FC
:2013E000C00103961E46DFB223460B4C20181C46C01901F08DFB3346039E981DC2B2711C22
:201400007A2A00D831462346D9D80346D7E707B0F0BDC046302B000000002020F0B5394A8B
:201420008218394BC0183A4D4C790B79002C22D0466F202B02D00524E70100E0354F2E4013
:20144000002B00D188273E434667846F2C403C438467446B2D4E34404463846B344084635B
:2014600000244465846554688F26F643344054609468344094600C688979202B09D006469A
:201480007036002B15D1641E4460C46E2C40882715E0641E4460C46E2C401E4E3443C4665C
:2014A000046F2C40344304671B4D01246707064607E00527FF0164084460C46E2C403C43E4
:2014C000C46634682C403C433460C46A0F4D2C40C462046B2C4004630024C4640465C46F81
:2014E0008F25ED432C40C46714682C401460194302680A4B1340BD220A40D118891C01608F
:20150000F0BDC04684180000041800008888FDFF24493E0001040000FFFFFFCF4000FFCFCA
:20152000F0B585B000F080FA2C480078002853D001F0CEFA06462A4803882A4802882A48C0
:2015400001688E4207D1294909888B4203D1284909888A4240D006602448038024480280B5
:201560000492244A00252846294602932B4600F0AFFE214A0224284621462B4600F0A8FE55
:201580000095122003900427214632463B46FFF7B5FE1A4A284639462B4600F099FE0298DA
:2015A00000B217494143C80FC9140A1800951E2039463B46FFF7A2FE124A062428462146FB
:2015C0002B4600F085FE009503982146049A3B46FFF794FEFFF72AFD05B0F0BD8E04202098
:2015E000740420207604202054042020800420207E042020AD2E0000D42E0000C12E00008F
:201600007B140000D02E000010B52C480078012853D12B48016800294FD02A480278002A05
:201620004BD029480378002B19D0022B04D0012B43D1284A127819E024490968244B1B6889
:20164000C91AC9087D2938D322490B785B1CDCB20B7094422CD20121017020492BE01D4B74
:2016600000221A70012303701C4B1A805200895A194A1388CB1A1BB20A2B01DD0A2306E01B
:201680000A24E443A3420B4603DC0923DB431488E318138012888A420FD110490A881E2AF3
:2016A0000BD30222027009480068094A106002E00321017008490020088010BD9004202029
:2016C0006804202093042020920420203C042020640420209104202078042020760420203E
:2016E000FCB40127FF07794002E0FCB40127FF070C024D002D0E03D1002C52D1FCBC70476B
:201700003C43FF2D50D0A408002900D56442020243001B0E04D1002A43D10800FCBC7047B4
:201720003A43FF2B41D09208002800D552425E1B04D5170022003C0076422B00192E06D5FA
:2017400027003741D2191C27F71B7F42BC40002A27D002D55242012700E00027013B5200A4
:20176000FCD51500802635400FD01500202635402C43803208D21500402635402C4304D18A
:2017800001263602B24300E05B1C5200023308DDFF2B0BD2500ADB051843FF073843FCBC5D
:2017A00070470020FCBC70470800C70FFF07FF20C0053843FCBC704770B53048812404608B
:2017C00044602F480321016401602E4801F086F9AE2000F0DFFCD52000F0DCFC802000F038
:2017E000D9FCA82000F0D6FC3F2000F0D3FCD32000F0D0FC0026304600F0CCFC4025284696
:2018000000F0C8FC8D2000F0C5FC142000F0C2FC202000F0BFFC304600F0BCFCA12000F01A
:20182000B9FCC82000F0B6FCDA2000F0B3FC122000F0B0FC204600F0ADFCCF2000F0AAFC7E
:20184000D92000F0A7FCF12000F0A4FCDB2000F0A1FC284600F09EFCA42000F09BFCA620CA
:2018600000F098FCAF2000F095FC07480121890201F0AFF8FFF7DAFB70BDC04604804240FC
:2018800090120A4000A8610000002020B0B523480021016041602248016041602149224BDD
:2018A0008B62886A8862214A10680124A50205431560CB62C86AC8621068E502054315604E
:2018C0000B600868086015681020054315604B604B684B60116820230B4313601449154A19
:2018E0004A60154A0A6001F0F9F81449144801F031F814481449416014490A6822430A60C8
:2019000013490C60134902220A6063040B6012490A600B60016821430160B0BD1004202024
:2019200018042020448042408100040028300A4000888640030000B1010000267D2E00000A
:2019400000808640049886400F270000289086400891864080E200E000E100E0F0B581B0F3
:201960000546C01F0421C94388421CD30024204600F06CFD1F4804701F4804801F4800F053
:201980003FFC28011E490F181E4A1570085C1E4908701E48046001263046A8400B21084260
:2019A00003D0032D0BD201B0F0BD00F0FDFF786801F046F8012000F049FD032DF3D30E4A49
:2019C000148013480480032D08D1B9683A7B114B196011490A70084A148004800F490C70CE
:2019E0000F490C7014800480024806700D48047001B0F0BD90042020780420200000B4428E
:201A0000582D0000850420208C042020480420207604202068042020930420209204202009
:201A20009104202084042020F0B581B0264F3878002834D0254800687D21C90000F096FD23
:201A400023490A6890423CD00860224A02260024054620463146234600F03AFC3A780094AD
:201A60000C2001233146FFF749FC1B4A042620463146234600F02CFC00941E2031462A46BE
:201A80003346FFF73BFC154A38203146234600F01FFC1348007800280BD0134A0AE00C498C
:201AA000086800280DD000200860104A0221034603E00C4A06212046234600F009FCFFF749
:201AC000B5FA01B0F0BDC04685042020480420202C042020EC2E0000BB2E0000EF2E00000E
:201AE0008C042020342E0000742E0000562E0000F0B581B026480178002913D10121017031
:201B000024495A2008802449FF220A8000F0A0FE00F072FF214A00200146034600F0D8FB71
:201B2000FFF784FA1B4F39881B48028891422DD001801B484843642100F018FD192189018C
:201B40004418184A02260025284631462B4600F0BFFB3A880095302003233146FFF7CEFB77
:201B6000114A482031462B4600F0B2FB0F4A0426284631462B4600F0ABFB009518200523B9
:201B800031462246FFF7BAFBFFF750FA01B0F0BD8B0420207A0420207C0420204B2E000057
:201BA000E40D0000B42E0000D82E0000DC2E000070B582B01B481C4941601C49016010208C
:201BC00000F08CFF1A491B4C204600F0C3FE1A492046FFF723FC194E306819490140316098
:201BE00000250095202120462A462B4600F0F8FE204629462A4600F09FFE4B208101204698
:201C00002A4600F045FF0F480121016081600E488522026008020D4A1060306808433060C2
:201C200002B070BD00088640030000B101000026E92E000000008640902E0000041886409F
:201C40007F00FFFF001186404C804240D0120A4010B584B01A481B4941601B490160102061
:201C600000F03CFF03A908200880184C204600F0FDFE694600200881032002070192C0044D
:201C80000090204600F00EFCE12042021049204600F050F90F48822101600F49C1600F48EC
:201CA0000168012293020B430360D0030C4908600C4908600C4801681143016004B010BD12
:201CC00000881040030000B101000026008010400048E8010C8042408200040028901040B4
:201CE00080E200E000E100E000911040002A49D084468B071CD1830722D1102A08D370B4BE
:201D0000103A78C978C0103AFBD270BC103238D0042A2CD3082A05D30C2A01D308C908C099
:201D200008C908C008C908C092072AD0920F22E00B780370491C401C521E22D08B07F7D1C8
:201D4000C30714D18307D8D0121F12D308C903801B0C4380001D121FF8D20AE008C9037008
:201D60001B0A43701B0A83701B0AC370001D121FF4D2121D05D00B780370491C401C521EDC
:201D8000F9D160467047FEE71D480168090201D4012010E00168890201D402200BE0194940
:201DA0000968490301D4032005E00068800301D5002000E0042014490A7890420FD11349B7
:201DC0000A78132A1BD8521C0A70132A17D100280AD00F4901220A700E49087070470B4A72
:201DE000002313700870704709480178012906D108490A78084B1A70002202700A707047CE
:201E000080130A4080330A408704202086042020890420208A0420208204202040B54200BB
:201E20004B005E08164301D006004E4000D4D01A04D20120C90F06D1404204E003D901206C
:201E4000C90F00D04042FF263606B24200D8B34200D9012040BD40B542004B005E081643FE
:201E600001D006004E4000D4D01A04D20120C90F06D1404204E003D90120C90F00D040420C
:201E8000FF263606B24200D8B34201D90120404240BD42004B000020FF2109068A4200D826
:201EA0008B4200D901207047FCB40127FF0706004E4001D4002600E03E00020243001B0EA9
:201EC00030D03A43FF2B30D00C024D002D0E29D03C43FF2D29D05B194240504042404C4094
:201EE00061404C4000B500F09DFB20BCAE464240504042404C4061404C4025001400002CF6
:201F000001D46400013B803401D3013364087E3B08DDFF2B09D2BC43200ADB0518433043AA
:201F2000FCBC70470020FCBC7047FF20C0053043FCBC7047B0B511231B02C4181B48D30015
:201F400099420BD223680340012000041843206088010321514300F009FB11E01501236834
:201F60000340A94205D20120C00303432360520800E02360C800114600F0F8FA401C40084D
:201F800081093F2210402369094D1D4089B2691821616169914308186061606801210840D8
:201FA00062688A4310186060B0BDC046FF7FFEFF0000FFFFF0B50020C143194B1948012502
:201FC000EE020246103A1468C32212012240670507D4B24210D3AD021E682E4207D00E46BB
:201FE00006E01F6837420E4602D02E4600E001260D4D2F68F6192E60E50605D4A4060BD57E
:202000001B68DB0603D403E01B689B0600D40121064B1C6809191960016811430160F0BD4D
:2020200080330A4048300A40100420201804202070B50C461A4E01225102EFF3108572B63D
:20204000012804DB3346103B1960314605E031600028314601D03146103913030B60C117C5
:202060004840411A0F4800F013FD012C04DB304610388021016004E080203060002C00D04A
:20208000103E40203060E0174440211A0648002200F0FEFC002D00D070BD62B670BDC0467D
:2020A000A0320A400000874000000940F8B5451C00780023082B32D02F78C2070CD16A78E7
:2020C0000F241440E41C122C0BD102242E57F4B2002E08D4EE1C0EE06D1C4A1C0F70114647
:2020E0001AE0AE1C08E02E1DED7800957F252C40009DED012C1912343D0112095219094DAF
:20210000AA420ED0D243002C05D08D5C4F1C0D70641E3946F7E7354640085B1CCAE72846D6
:20212000C5E7F8BDFF0F000080B50F480F4941600F490160102000F0D1FC0E490E4800F068
:2021400009FC0E480E4941600E490A6801231A430A600D490B6019050C4A11600C4A11600B
:2021600001681943016080BD00A88640030000B101000026E62E000000A0864004B88640B7
:202180001F4E000028B0864008B1864080E200E000E100E0F0B581B00090184E0127376423
:2021A00037604B20C400204600F098FC02253560204600F093FC37643761204600F08EFCBB
:2021C0003561204600F08AFC7820FEF7B7FD0020FEF7B4FD0098FEF7B1FD376437612046B2
:2021E00000F07CFC3560204600F078FC37643760204600F073FC01B0F0BDC04690120A40D1
:2022000070B506460024214600F0CFF80028254600D135460F4E2846314600F0E1F80028F9
:2022200000D12E460C493046FFF73EFE0B49FFF75CFA06460A4D294600F0D2F8002800D1F7
:202240003546284600F076FA01460648224600F01FFC70BD00003443713D0E420000C8447F
:202260000000FA4500008640124900200871C8708870487008701049087048708870C8704C
:2022800008710E4908700E4908600E4908600E480E494162426A4262C161C269C261816087
:2022A000826882600160026802600163016B01637047C0462004202025042020940420208F
:2022C00040042020700420209080424081000C00F0B581B004461078002824D00D46561C1E
:2022E000134F04E03078761C00280D461BD001467F395E22D24391420BD3062250430B49A4
:202300000918C039E8B2C001E3B23818C01800F0FFFBA01DC2B2691C00247A2A00D82946DC
:20232000E0D80446DEE701B0F0BDC046302B0000000020208446830706D0002A29D0017019
:202340000130013A8307F8D1042A1CD30906090E0B0219430B041943082A10D30B00102A4D
:2023600009D370B40F24161B22400C000D003AC0103EFCD870BC082A01D30AC0083A042AF6
:2023800001D302C0043A002A03D0013A8154013AFCD260467047704710B5FFF73FFD002820
:2023A00001D0002010BD012010BD10B5FFF736FD002801DB002010BD012010BD10B5FFF7E9
:2023C0002DFD002801DD002010BD012010BD10B5FFF741FD002801DA002010BD012010BD1B
:2023E00010B5FFF738FD002801DC002010BD012010BD704770B50F4D2878002818D00E4EC9
:2024000031680A313160022812D100F0BFFA00280ED00024204600F019F8084804700848FC
:2024200004800848FFF7ECFE2C7007480470346070BDC04685042020480420209004202099
:20244000780420200000B4428C04202080B500280CD00E480021017041708170C170017194
:202460000B4801700B480121017080BD094900200870074901220A7007490860074908602E
:20248000074908600146FFF7D3FD80BD250420208D042020940420206C04202070042020C4
:2024A0004004202070B511221302C218C4580125AC43C4500C888D7825438C882C43C5586B
:2024C000084E2E40084D25407419C4508879CB790343087A184351687E23994318400818C7
:2024E000506070BDE798FDFF18670000B0B5002817D004280DD10B4C207800010A490D181F
:20250000281F103D0068804728782070FDF7D8FDB0BD044909780901034A51180C3909684E
:202520008847B0BD88042020C82D000010B500242046FFF78BFF07480470074804800748EA
:20254000FFF75EFE06480470064804700648046010BDC04690042020780420200000B4429A
:20256000850420208C042020480420201CB50A0017D000230124E407A04200D204009442B3
:2025800001D95200FBE790425B41904200D3801A914201D25208F6E719000200080011006F
:2025A0001CBD0100002000F0DEF81CBD70B50A480A4C84420CD00A4D0A4EB54208D02A6803
:2025C0006968501C12789200A25890470835F4E700F09DFA70BDC046202F0000142F00006D
:2025E000282F0000382F000006B49E22002802D404D106BC7047414204D400E00100013AE0
:202600004900FCD5803101D3013200E04900490AD2051143002802D50122D20711430800EA
:2026200006BC7047FCB4020C0B0CFF242402FF34204021400C00444315005D4306005E4320
:202640000F005743320C3B0CA818C01832043B040025A1186841C9186841FCBC7047704708
:2026600006B54100090E7F390DD41F22511A0CD9864600020122D2071043C8407246002A16
:2026800000D5404206BD002006BD02000120C007002A00D4401E06BD80B5032806D00228D4
:2026A0000ED10220FFF75AF9074A02E0FFF73EFF044A022100200346FFF70AFEFEF7B6FCEB
:2026C00080BDC0466B2E0000A62E000080B5032806D002280ED10320FFF740F9074A02E086
:2026E000FFF724FF044A022100200346FFF7F0FDFEF79CFC80BDC046612E00009F2E0000D8
:2027000080B5032806D002280ED10420FFF726F9074A02E0FFF70AFF044A02210020034635
:20272000FFF7D6FDFEF782FC80BDC046C62E0000982E000006B5002803D57346FFF790FF67
:2027400006BD4100090E7F3908D31F22511A07D300020122D2071043C84006BD002006BD46
:202760000020401E06BD704780B5032807D002280FD108480088AF2808D8401D04E0054803
:202780000088052802D3401F0249088080B200F05FF880BD7A0420200948002101600948E5
:2027A000014608390A6803239A430A60016801229143016001681202914301607047C04682
:2027C00008030B4008010B4000F016F80120FDF777FC00F065F9FFF789FE00F0C9F800F05D
:2027E0005FF9FFF783FE00F0C3F800F059F9FFF77DFE00F0BDF8ECE780B500F059F9FEF7C8
:202800005BFBFFF743F8FFF72FFDFEF7D5FF00F04BF8FFF7CDF9FFF71BFAFFF785FCFFF7DF
:2028200085FE80BD80B5064806494160064A5160064901601160102000F050F980BDC04697
:2028400000080A40030000B100280A400100002680B5B42800D3B420064A42436421104671
:20286000FFF784FE1921890141180348002200F00FF980BDE40D00000000864080B50848E5
:2028800001680A31016000F037F8FDF7E5FFFFF77BFAFFF7AFFD03480121016080BDC0461E
:2028A0003C0420204890864007480849C162C26AC262C161C269C261416142694261016026
:2028C000016801607047C0469C80424081000600084880F3088800F082F800F024F900285A
:2028E00001D0FFF763FE0020FFF76EFF012000F013F9C046008020200548016841600549A5
:202900000A6852424A60002202600A607047C046100420201804202005488121C1608161BA
:20292000416001604B20800102490860086370475C804240A0320A4010B592008018044A1D
:2029400083580724A404A34321405918815010BD3018000010B50122120383180C789C6013
:202960004B7883508978014A815010BD0C11000080B50448007800010349081808380068AC
:20298000804780BD88042020C82D000004480178481E814103480278012050400840704710
:2029A000250420208D04202004480021017041708170C170017102480170704725042020DF
:2029C0008D0420200B4611461A4680B5FFF7B2FC80BD0A46002180B5FFF7ACFC80BD7047D0
:2029E00010B5029CA400001911431943014A815010BDC0465018000080B504480121890282
:202A0000FFF7E7FFFEF712FB80BDC0460000202080B504480178002901D000210170FFF7D9
:202A200085FD80BD8E04202080B5FEF7EDFDFEF753F802480121016080BDC04648B08640E3
:202A40000A2800DC0A20C82800DBC820014908607047C0464C04202080B55A20FFF7F8FEF1
:202A600001480021017080BD8B04202010B50122120383180C789C604978815010BD80B5C3
:202A80000B4603214258C11D184600F041F880BD92008018014A81507047C046101800005A
:202AA0000249087800220A707047C0468204202080B5FFF7B7FEFFF72FFFFFF76DFE80BD8A
:202AC00080B50A46032141581046FFF782FF80BD014800687047C04634042020811E091FFD
:202AE00000BFFCD2704780B5FFF720FD80BD80B5FEF79AFF80BD80B5FFF718FD80BD80B55B
:202B0000FEF792FF80BD80B5FEF748FB80BD704780B5FFF7EBF880BD00F001F8FEE700BFB9
:102B20007047D5E6704701207047000000000000A4
:202B30000000000000000000002F000000000700070000147F147F1400242A7F2A120062A3
:202B50006408132300364955225000000503000000001C224100000041221C000014083E1D
:202B700008140008083E0808000000A06000000808080808000060600000002010080402A5
:202B9000003E5149453E0000427F4000004261514946002141454B31001814127F1000272F
:202BB00045454539003C4A49493000017109050300364949493600064949291E00003636A0
:202BD000000000005636000000081422410000141414141400004122140800020151090694
:202BF00000324959513E007C1211127C007F49494936003E41414122007F4141221C007FC4
:202C100049494941007F09090901003E4149497A007F0808087F0000417F410000204041AA
:202C30003F01007F08142241007F40404040007F020C027F007F0408107F003E4141413E60
:202C5000007F09090906003E4151215E007F091929460046494949310001017F0101003F51
:202C70004040403F001F2040201F003F4038403F00631408146300070870080700615149D2
:202C9000454300007F41410000552A552A55000041417F00000402010204004040404040FA
:202CB000000001020400002054545478007F4844443800384444442000384444487F0038FF
:202CD0005454541800087E0901020018A4A4A47C007F080404780000447D40000040808472
:202CF0007D00007F102844000000417F4000007C04180478007C08040478003844444438F8
:202D100000FC242424180018242418FC007C0804040800485454542000043F444020003C94
:202D30004040207C001C2040201C003C4030403C004428102844001CA0A0A07C004464542B
:202D50004C441414141414140000000000000000000000000000000000000000000000005B
:202D700000000000000000000100000012000000000000000000000000010000000000002F
:202D9000CC2E000002000000010100001200000000000000000000000101000019000000F8
:202DB000000000000000000001010000230000000000000000000000020000009723000022
:202DD0005F260000F32300000300000099260000EF2A0000E72A00000400000069270000C8
:202DF000F11A0000592A000005000000CD260000FF2A0000F72A00000100000001270000CA
:202E100021150000112A00004B323A474F20204B333A53544F500048656C6C6F20576F725A
:202E30006C642100564953494F4E204F4E4C5900534552564F205445535400534552564FD9
:202E50002054455354005441534B3A204E4F4E450054333A2052455345540054323A2053AE
:202E7000544F5000545241434B204F4E0008001FC700000000000000C70000000000000068
:202E9000FFF900002000000054343A20474F0054333A20474F0054323A20474F00564953B3
:202EB000494F4E00416E676C653A0054696D653A0076656C3A0053544F5000005000B0FF6C
:202ED00073743A0064783A006465670043433A0008000F08000F08001F080009543A007354
:082EF0000000000000000000DA
:202EF8000095FF000000000F091201CF0A038E5A050004C9010589FFF0000000AD2000001A
:202F18007F2A0000C12A0000020000002A040000F82E00002C042020202F000000002020B0
:00000001FF
